{
  "transactions": [
    {
      "hash": "0x0b491a3be279e766c9d3aae3ec82e1149a56d92b3b1b6f5f01616dbd2cd7dc4c",
      "transactionType": "CREATE",
      "contractName": "RarityShuffleMetadata",
      "contractAddress": "0x2Dac5DBbF1D024c1E0D9c92D3AeDa7618e15aDd7",
      "function": null,
      "arguments": [
        "0x1796445248Ea539AFD0De3C2F39e5884e4F27E30",
        "888",
        "13",
        "[0, 259, 409, 534, 634, 709, 759, 799, 829, 849, 865, 877, 885]"
      ],
      "transaction": {
        "type": "0x02",
        "from": "0xb0be073cb0b350b26e432808f78d19e8447dd6dd",
        "gas": "0x11b7b7",
        "value": "0x0",
        "data": "0x608060405234801561001057600080fd5b50604051610ac2380380610ac283398101604081905261002f91610113565b600680546001600160a01b0319166001600160a01b0386161790556001805461ffff191661ffff8516179055600582905560005b6005548110156100b257600482828151811061008157610081610215565b60209081029190910181015182546001810184556000938452919092200155806100aa8161022b565b915050610063565b50604080516001600160a01b03861681523060208201527f8c65e3eac9b9c6a4bf45fea1c314444b6362dcf08eb1e62022a564f3c47ace50910160405180910390a150505050610252565b634e487b7160e01b600052604160045260246000fd5b6000806000806080858703121561012957600080fd5b84516001600160a01b038116811461014057600080fd5b8094505060208086015161ffff8116811461015a57600080fd5b6040870151606088015191955093506001600160401b038082111561017e57600080fd5b818801915088601f83011261019257600080fd5b8151818111156101a4576101a46100fd565b8060051b604051601f19603f830116810181811085821117156101c9576101c96100fd565b60405291825284820192508381018501918b8311156101e757600080fd5b938501935b82851015610205578451845293850193928501926101ec565b989b979a50959850505050505050565b634e487b7160e01b600052603260045260246000fd5b60006001820161024b57634e487b7160e01b600052601160045260246000fd5b5060010190565b610861806102616000396000f3fe608060405234801561001057600080fd5b50600436106100be5760003560e01c8063c6d553c511610076578063cfedd61b1161005b578063cfedd61b14610193578063d528d118146101a6578063fc7e9c6f146101ca57600080fd5b8063c6d553c51461015e578063c87b56dd1461017357600080fd5b806381914619116100a757806381914619146100f25780638e98f86a146101125780639e05c1181461013d57600080fd5b80635d5cf8bd146100c35780635fdecdfa146100df575b600080fd5b6100cc60055481565b6040519081526020015b60405180910390f35b6100cc6100ed3660046105e5565b6101d3565b6100cc6101003660046105e5565b60026020526000908152604090205481565b600654610125906001600160a01b031681565b6040516001600160a01b0390911681526020016100d6565b60015461014b9061ffff1681565b60405161ffff90911681526020016100d6565b61017161016c3660046105e5565b6101f4565b005b6101866101813660046105e5565b6102c7565b6040516100d69190610622565b6100cc6101a13660046105e5565b610391565b61014b6101b43660046105e5565b60006020819052908152604090205461ffff1681565b6100cc60035481565b600481815481106101e357600080fd5b600091825260209091200154905081565b6006546001600160a01b03163314610252576006546040517f6b5cf7a10000000000000000000000000000000000000000000000000000000081526001600160a01b0390911660048201523360248201526044015b60405180910390fd5b6003545b81600354610264919061066b565b8110156102c3576000610278600143610684565b604080519140602083015281018390526060016040516020818303038152906040528051906020012060001c90506102b0828261045a565b50806102bb81610697565b915050610256565b5050565b606060006102d483610391565b90506000336001600160a01b0316636c0360eb6040518163ffffffff1660e01b8152600401600060405180830381865afa158015610316573d6000803e3d6000fd5b505050506040513d6000823e601f3d908101601f1916820160405261033e91908101906106c6565b9050805160000361035e5760405180602001604052806000815250610389565b80610368836105a1565b604051602001610379929190610768565b6040516020818303038152906040525b949350505050565b600081815260026020526040812054600554829081906103b390600190610684565b90505b8181111561044657600060026103cc8484610684565b6103d691906107ad565b6103e09083610684565b90506000600482815481106103f7576103f76107c1565b906000526020600020015490508085036104215761041682600161066b565b979650505050505050565b848110156104315781935061043f565b61043c600183610684565b92505b50506103b6565b61045182600161066b565b95945050505050565b60015461ffff166104c7576040517f08c379a000000000000000000000000000000000000000000000000000000000815260206004820152600860248201527f536f6c64206f75740000000000000000000000000000000000000000000000006044820152606401610249565b6001546000906104db9061ffff16836107d7565b60008181526020819052604081205491925061ffff909116908190036104fe5750805b600180546000916105129161ffff166107eb565b61ffff8082166000908152602081905260408120549293509116908190036105375750805b6000848152602081905260408120805461ffff191661ffff84811691909117909155600180549091169161056a8361080d565b825461ffff9182166101009390930a9283029190920219909116179055505050600093845260026020526040909320929092555050565b606060a06040510180604052602081039150506000815280825b600183039250600a81066030018353600a9004806105bb5750819003601f19909101908152919050565b6000602082840312156105f757600080fd5b5035919050565b60005b83811015610619578181015183820152602001610601565b50506000910152565b60208152600082518060208401526106418160408501602087016105fe565b601f01601f19169190910160400192915050565b634e487b7160e01b600052601160045260246000fd5b8082018082111561067e5761067e610655565b92915050565b8181038181111561067e5761067e610655565b6000600182016106a9576106a9610655565b5060010190565b634e487b7160e01b600052604160045260246000fd5b6000602082840312156106d857600080fd5b815167ffffffffffffffff808211156106f057600080fd5b818401915084601f83011261070457600080fd5b815181811115610716576107166106b0565b604051601f8201601f19908116603f0116810190838211818310171561073e5761073e6106b0565b8160405282815287602084870101111561075757600080fd5b6104168360208301602088016105fe565b6000835161077a8184602088016105fe565b83519083019061078e8183602088016105fe565b01949350505050565b634e487b7160e01b600052601260045260246000fd5b6000826107bc576107bc610797565b500490565b634e487b7160e01b600052603260045260246000fd5b6000826107e6576107e6610797565b500690565b61ffff82811682821603908082111561080657610806610655565b5092915050565b600061ffff82168061082157610821610655565b600019019291505056fea264697066735822122079c12be5e79e7efabbb4e318878eb2ae0d9d7852c2fa2fb718bca5d18574d36464736f6c634300081100330000000000000000000000001796445248ea539afd0de3c2f39e5884e4f27e300000000000000000000000000000000000000000000000000000000000000378000000000000000000000000000000000000000000000000000000000000000d0000000000000000000000000000000000000000000000000000000000000080000000000000000000000000000000000000000000000000000000000000000d0000000000000000000000000000000000000000000000000000000000000000000000000000000000000000000000000000000000000000000000000000010300000000000000000000000000000000000000000000000000000000000001990000000000000000000000000000000000000000000000000000000000000216000000000000000000000000000000000000000000000000000000000000027a00000000000000000000000000000000000000000000000000000000000002c500000000000000000000000000000000000000000000000000000000000002f7000000000000000000000000000000000000000000000000000000000000031f000000000000000000000000000000000000000000000000000000000000033d00000000000000000000000000000000000000000000000000000000000003510000000000000000000000000000000000000000000000000000000000000361000000000000000000000000000000000000000000000000000000000000036d0000000000000000000000000000000000000000000000000000000000000375",
        "nonce": "0x4",
        "accessList": []
      },
      "additionalContracts": []
    },
    {
      "hash": "0xe894af4cf91c64f38e9ad0cbf6c80a7999910e2d208639cbe7f0043bbd5c2214",
      "transactionType": "CALL",
      "contractName": null,
      "contractAddress": "0x4f2c9028fE7107d9f1A8a9CFf34aa2d3F28600fa",
      "function": null,
      "arguments": null,
      "transaction": {
        "type": "0x02",
        "from": "0xb0be073cb0b350b26e432808f78d19e8447dd6dd",
        "to": "0x4f2c9028fe7107d9f1a8a9cff34aa2d3f28600fa",
        "gas": "0x561a6",
        "value": "0x0",
        "data": "0x3d1d406a00000000000000000000000000000000000000000000000000000000000000010000000000000000000000000000000000000000000000000000000000000080000000000000000000000000000000000000000000000000000000000000032000000000000000000000000000000000000000000000000000000000000003400000000000000000000000000000000000000000000000000000000000000264dd012a11000000000000000000000000000000000000000000000000000000000000016000000000000000000000000000000000000000000000000000000000000001a00000000000000000000000002dac5dbbf1d024c1e0d9c92d3aeda7618e15add700000000000000000000000000000000000000000000000000000000000001e00000000000000000000000000000000000000000000000000000000000000220000000000000000000000000b0be073cb0b350b26e432808f78d19e8447dd6dd00000000000000000000000000000000000000000000000000000000000000640000000000000000000000000000000000000000000000000000000000000000000000000000000000000000000000000000000000000000000000000000037800000000000000000000000000000000000000000000000000000000637669800000000000000000000000000000000000000000000000000000000000000006000000000000000000000000000000000000000000000000000000000000000944454d4f2044524f500000000000000000000000000000000000000000000000000000000000000000000000000000000000000000000000000000000000000444454d4f00000000000000000000000000000000000000000000000000000000000000000000000000000000000000000000000000000000000000000000001d68747470733a2f2f6578616d706c652e636f6d2f6d657461646174612f000000000000000000000000000000000000000000000000000000000000000000001f68747470733a2f2f6578616d706c652e636f6d2f73746f726566726f6e742f000000000000000000000000000000000000000000000000000000000000000000000000000000000000000000000000000000000000000000000000000000000000000000000000000000000000000000000000000000000000000000",
        "nonce": "0x5",
        "accessList": []
      },
      "additionalContracts": [
        {
          "transactionType": "CREATE2",
          "address": "0x1796445248Ea539AFD0De3C2F39e5884e4F27E30",
          "initCode": "3d602d80600a3d3981f3363d3d373d3d3d363d734acd31edc93adb1cf08ffbcf4097bd61f4a824f65af43d82803e903d91602b57fd5bf3"
        }
      ]
    },
    {
      "hash": "0xa6f0e7d6eba93b37c36a2ffba45e9c7e96824b226f439e94791b2f3515062d18",
      "transactionType": "CALL",
      "contractName": "EditionMaxMinter",
      "contractAddress": "0x5E5d50Ea70c9a1B6ED64506F121b094156B8Fd20",
      "function": "createEditionMint(address,uint96,uint32,uint32,uint16,uint32):(uint128)",
      "arguments": [
        "0x1796445248Ea539AFD0De3C2F39e5884e4F27E30",
        "800000000000000",
        "1666112640",
        "1668704640",
        "0",
        "100"
      ],
      "transaction": {
        "type": "0x02",
        "from": "0xb0be073cb0b350b26e432808f78d19e8447dd6dd",
        "to": "0x5e5d50ea70c9a1b6ed64506f121b094156b8fd20",
        "gas": "0x252d7",
        "value": "0x0",
        "data": "0x9d88440e0000000000000000000000001796445248ea539afd0de3c2f39e5884e4f27e300000000000000000000000000000000000000000000000000002d79883d2000000000000000000000000000000000000000000000000000000000000634edc80000000000000000000000000000000000000000000000000000000006376698000000000000000000000000000000000000000000000000000000000000000000000000000000000000000000000000000000000000000000000000000000064",
        "nonce": "0x6",
        "accessList": []
      },
      "additionalContracts": []
    }
  ],
  "receipts": [
    {
      "transactionHash": "0x0b491a3be279e766c9d3aae3ec82e1149a56d92b3b1b6f5f01616dbd2cd7dc4c",
      "transactionIndex": "0x10",
      "blockHash": "0xc40121c1f93b224dad5301147dbb75b5733fcc55e126da2e51734b3fce261308",
      "blockNumber": "0x76e5b2",
      "from": "0xb0bE073cB0B350B26e432808F78d19E8447DD6DD",
      "to": null,
      "cumulativeGasUsed": "0x746558",
      "gasUsed": "0xda103",
      "contractAddress": "0x2Dac5DBbF1D024c1E0D9c92D3AeDa7618e15aDd7",
      "logs": [
        {
          "address": "0x2Dac5DBbF1D024c1E0D9c92D3AeDa7618e15aDd7",
          "topics": [
            "0x8c65e3eac9b9c6a4bf45fea1c314444b6362dcf08eb1e62022a564f3c47ace50"
          ],
          "data": "0x0000000000000000000000001796445248ea539afd0de3c2f39e5884e4f27e300000000000000000000000002dac5dbbf1d024c1e0d9c92d3aeda7618e15add7",
          "blockHash": "0xc40121c1f93b224dad5301147dbb75b5733fcc55e126da2e51734b3fce261308",
          "blockNumber": "0x76e5b2",
          "transactionHash": "0x0b491a3be279e766c9d3aae3ec82e1149a56d92b3b1b6f5f01616dbd2cd7dc4c",
          "transactionIndex": "0x10",
          "logIndex": "0x41",
          "removed": false
        }
      ],
      "status": "0x1",
      "logsBloom": "0x00000000000000000000000000000000000000000000000000000000000000000000000000000000000000000000000000000000000000000000000000000000000000802000000000000000000000000000000000000000000002000000000000000000000000000000000000000000000000000000000000000000000000000000000000000000000000000000000000000000000000000000000000000000000000000000000000000000000000000000000000000000000200000000000000000000000000000000000000000000000800000000000000000000000000000000000000000000000000000000000200000000000000000000000000000000",
      "type": "0x2",
      "effectiveGasPrice": "0x11b9cc7060"
    },
    {
      "transactionHash": "0xe894af4cf91c64f38e9ad0cbf6c80a7999910e2d208639cbe7f0043bbd5c2214",
      "transactionIndex": "0x11",
      "blockHash": "0xc40121c1f93b224dad5301147dbb75b5733fcc55e126da2e51734b3fce261308",
      "blockNumber": "0x76e5b2",
      "from": "0xb0bE073cB0B350B26e432808F78d19E8447DD6DD",
      "to": "0x4f2c9028fE7107d9f1A8a9CFf34aa2d3F28600fa",
      "cumulativeGasUsed": "0x784abd",
      "gasUsed": "0x3e565",
      "contractAddress": null,
      "logs": [
        {
          "address": "0x1796445248Ea539AFD0De3C2F39e5884e4F27E30",
          "topics": [
            "0x8be0079c531659141344cd1fd0a4f28419497f9722a3daafe3b4186f6b6457e0",
            "0x0000000000000000000000000000000000000000000000000000000000000000",
            "0x0000000000000000000000004f2c9028fe7107d9f1a8a9cff34aa2d3f28600fa"
          ],
          "data": "0x",
          "blockHash": "0xc40121c1f93b224dad5301147dbb75b5733fcc55e126da2e51734b3fce261308",
          "blockNumber": "0x76e5b2",
          "transactionHash": "0xe894af4cf91c64f38e9ad0cbf6c80a7999910e2d208639cbe7f0043bbd5c2214",
          "transactionIndex": "0x11",
          "logIndex": "0x42",
          "removed": false
        },
        {
          "address": "0x1796445248Ea539AFD0De3C2F39e5884e4F27E30",
          "topics": [
            "0x81fb8daf8a05fc760e25f1447b0ca819bcf138a168ec6c1aaa0bd62b170bf32a",
            "0x0000000000000000000000001796445248ea539afd0de3c2f39e5884e4f27e30"
          ],
          "data": "0x000000000000000000000000000000000000000000000000000000000000016000000000000000000000000000000000000000000000000000000000000001a00000000000000000000000002dac5dbbf1d024c1e0d9c92d3aeda7618e15add700000000000000000000000000000000000000000000000000000000000001e00000000000000000000000000000000000000000000000000000000000000220000000000000000000000000b0be073cb0b350b26e432808f78d19e8447dd6dd00000000000000000000000000000000000000000000000000000000000000640000000000000000000000000000000000000000000000000000000000000000000000000000000000000000000000000000000000000000000000000000037800000000000000000000000000000000000000000000000000000000637669800000000000000000000000000000000000000000000000000000000000000006000000000000000000000000000000000000000000000000000000000000000944454d4f2044524f500000000000000000000000000000000000000000000000000000000000000000000000000000000000000000000000000000000000000444454d4f00000000000000000000000000000000000000000000000000000000000000000000000000000000000000000000000000000000000000000000001d68747470733a2f2f6578616d706c652e636f6d2f6d657461646174612f000000000000000000000000000000000000000000000000000000000000000000001f68747470733a2f2f6578616d706c652e636f6d2f73746f726566726f6e742f00",
          "blockHash": "0xc40121c1f93b224dad5301147dbb75b5733fcc55e126da2e51734b3fce261308",
          "blockNumber": "0x76e5b2",
          "transactionHash": "0xe894af4cf91c64f38e9ad0cbf6c80a7999910e2d208639cbe7f0043bbd5c2214",
          "transactionIndex": "0x11",
          "logIndex": "0x43",
          "removed": false
        },
        {
          "address": "0x1796445248Ea539AFD0De3C2F39e5884e4F27E30",
          "topics": [
            "0x8be0079c531659141344cd1fd0a4f28419497f9722a3daafe3b4186f6b6457e0",
            "0x0000000000000000000000004f2c9028fe7107d9f1a8a9cff34aa2d3f28600fa",
            "0x000000000000000000000000b0be073cb0b350b26e432808f78d19e8447dd6dd"
          ],
          "data": "0x",
          "blockHash": "0xc40121c1f93b224dad5301147dbb75b5733fcc55e126da2e51734b3fce261308",
          "blockNumber": "0x76e5b2",
          "transactionHash": "0xe894af4cf91c64f38e9ad0cbf6c80a7999910e2d208639cbe7f0043bbd5c2214",
          "transactionIndex": "0x11",
          "logIndex": "0x44",
          "removed": false
        },
        {
          "address": "0x4f2c9028fE7107d9f1A8a9CFf34aa2d3F28600fa",
          "topics": [
            "0x405098db99342b699216d8150e930dbbf2f686f5a43485aed1e69219dafd4935",
            "0x0000000000000000000000001796445248ea539afd0de3c2f39e5884e4f27e30",
            "0x000000000000000000000000b0be073cb0b350b26e432808f78d19e8447dd6dd"
          ],
          "data": "0x00000000000000000000000000000000000000000000000000000000000000800000000000000000000000000000000000000000000000000000000000000320000000000000000000000000000000000000000000000000000000000000034000000000000000000000000000000000000000000000000000000000000003600000000000000000000000000000000000000000000000000000000000000264dd012a11000000000000000000000000000000000000000000000000000000000000016000000000000000000000000000000000000000000000000000000000000001a00000000000000000000000002dac5dbbf1d024c1e0d9c92d3aeda7618e15add700000000000000000000000000000000000000000000000000000000000001e00000000000000000000000000000000000000000000000000000000000000220000000000000000000000000b0be073cb0b350b26e432808f78d19e8447dd6dd00000000000000000000000000000000000000000000000000000000000000640000000000000000000000000000000000000000000000000000000000000000000000000000000000000000000000000000000000000000000000000000037800000000000000000000000000000000000000000000000000000000637669800000000000000000000000000000000000000000000000000000000000000006000000000000000000000000000000000000000000000000000000000000000944454d4f2044524f500000000000000000000000000000000000000000000000000000000000000000000000000000000000000000000000000000000000000444454d4f00000000000000000000000000000000000000000000000000000000000000000000000000000000000000000000000000000000000000000000001d68747470733a2f2f6578616d706c652e636f6d2f6d657461646174612f000000000000000000000000000000000000000000000000000000000000000000001f68747470733a2f2f6578616d706c652e636f6d2f73746f726566726f6e742f0000000000000000000000000000000000000000000000000000000000000000000000000000000000000000000000000000000000000000000000000000000000000000000000000000000000000000000000000000000000000000000000000000000000000000000000000000000000000000000000000000000000",
          "blockHash": "0xc40121c1f93b224dad5301147dbb75b5733fcc55e126da2e51734b3fce261308",
          "blockNumber": "0x76e5b2",
          "transactionHash": "0xe894af4cf91c64f38e9ad0cbf6c80a7999910e2d208639cbe7f0043bbd5c2214",
          "transactionIndex": "0x11",
          "logIndex": "0x45",
          "removed": false
        }
      ],
      "status": "0x1",
      "logsBloom": "0x00000004000000000000000000000000000000000000000000800000000000000000000000000000000000000000000002000000000000200000000000000000000000000000000000000004000000000001000800000200000000000400000000000000020000000000000000080800000000000000000000000000000080500000000000000000001000000000000000000000400010001000000000000000000000000000000000000000000000000000000000000000002001004000000000000000000000000000000002000000000008000000000000000000000020000000000000000000000000000000000000000000000000000000000400100000",
      "type": "0x2",
      "effectiveGasPrice": "0x11b9cc7060"
    },
    {
      "transactionHash": "0xa6f0e7d6eba93b37c36a2ffba45e9c7e96824b226f439e94791b2f3515062d18",
      "transactionIndex": "0x12",
      "blockHash": "0xc40121c1f93b224dad5301147dbb75b5733fcc55e126da2e51734b3fce261308",
      "blockNumber": "0x76e5b2",
      "from": "0xb0bE073cB0B350B26e432808F78d19E8447DD6DD",
      "to": "0x5E5d50Ea70c9a1B6ED64506F121b094156B8Fd20",
      "cumulativeGasUsed": "0x79e178",
      "gasUsed": "0x196bb",
      "contractAddress": null,
      "logs": [
        {
          "address": "0x5E5d50Ea70c9a1B6ED64506F121b094156B8Fd20",
          "topics": [
            "0xeeb5941fb79bbfe40edd76c2e086e8ccdb0b463fc8ac07416266100b4dfddccf",
            "0x0000000000000000000000001796445248ea539afd0de3c2f39e5884e4f27e30",
            "0x000000000000000000000000b0be073cb0b350b26e432808f78d19e8447dd6dd"
          ],
          "data": "0x000000000000000000000000000000000000000000000000000000000000000000000000000000000000000000000000000000000000000000000000634edc8000000000000000000000000000000000000000000000000000000000637669800000000000000000000000000000000000000000000000000000000000000000",
          "blockHash": "0xc40121c1f93b224dad5301147dbb75b5733fcc55e126da2e51734b3fce261308",
          "blockNumber": "0x76e5b2",
          "transactionHash": "0xa6f0e7d6eba93b37c36a2ffba45e9c7e96824b226f439e94791b2f3515062d18",
          "transactionIndex": "0x12",
          "logIndex": "0x46",
          "removed": false
        },
        {
          "address": "0x5E5d50Ea70c9a1B6ED64506F121b094156B8Fd20",
          "topics": [
            "0x424598ee609df0f1f2469479325440098243a6879108658c0e0aa35fd18ace75",
            "0x0000000000000000000000001796445248ea539afd0de3c2f39e5884e4f27e30",
            "0x0000000000000000000000000000000000000000000000000000000000000000"
          ],
          "data": "0x0000000000000000000000000000000000000000000000000002d79883d2000000000000000000000000000000000000000000000000000000000000634edc80000000000000000000000000000000000000000000000000000000006376698000000000000000000000000000000000000000000000000000000000000000000000000000000000000000000000000000000000000000000000000000000064",
          "blockHash": "0xc40121c1f93b224dad5301147dbb75b5733fcc55e126da2e51734b3fce261308",
          "blockNumber": "0x76e5b2",
          "transactionHash": "0xa6f0e7d6eba93b37c36a2ffba45e9c7e96824b226f439e94791b2f3515062d18",
          "transactionIndex": "0x12",
          "logIndex": "0x47",
          "removed": false
        }
      ],
      "status": "0x1",
      "logsBloom": "0x00000000000000000000000000000000000000000000000000002000000000000000000000000000000000000000200000000000000000000000000000000000000000000000000000000000000000000000000000000000000000000000000000000000020040000000000000100800000000000000000000004000000080000000000000000000000000000000000000000000000010000000000000000000000000000000000000000000000100000000000000000000002001000040000000000000000100000000000000000000000008000000000000000000000020000000000000000000000000000000000000000000000000000000000400020000",
      "type": "0x2",
      "effectiveGasPrice": "0x11b9cc7060"
    }
  ],
  "libraries": [],
  "pending": [],
  "path": "/Users/isaacpatka/Music/dev/sound-protocol/broadcast/NewEdition.s.sol/5/run-latest.json",
  "returns": {},
  "timestamp": 1666112704,
  "commit": "a373854"
}