{
  "transactions": [
    {
      "hash": "0x4c674123db644c58d7a0c5dc01febfdcb593d5b8ca526d161db8ac002e5eebab",
      "transactionType": "CALL",
      "contractName": "RangeEditionMinter",
      "contractAddress": "0x4552f8b70a72A8ea1084bf7B7Ba50F10F2F9dAa7",
      "function": "createEditionMint(address,uint96,uint32,uint32,uint32,uint16,uint32,uint32,uint32):(uint128)",
      "arguments": [
        "0x88C67b0510F576a539ecc9dBF571f6E0B0B89Bf3",
        "800000000000000",
        "1666200108",
        "1668705708",
        "1668792108",
        "0",
        "888",
        "888",
        "100"
      ],
      "transaction": {
        "type": "0x02",
        "from": "0xb0be073cb0b350b26e432808f78d19e8447dd6dd",
        "to": "0x4552f8b70a72a8ea1084bf7b7ba50f10f2f9daa7",
        "gas": "0x1e670",
        "value": "0x0",
        "data": "0x7cbf126b00000000000000000000000088c67b0510f576a539ecc9dbf571f6e0b0b89bf30000000000000000000000000000000000000000000000000002d79883d20000000000000000000000000000000000000000000000000000000000006350322c0000000000000000000000000000000000000000000000000000000063766dac000000000000000000000000000000000000000000000000000000006377bf2c0000000000000000000000000000000000000000000000000000000000000000000000000000000000000000000000000000000000000000000000000000037800000000000000000000000000000000000000000000000000000000000003780000000000000000000000000000000000000000000000000000000000000064",
        "nonce": "0xf",
        "accessList": []
      },
      "additionalContracts": []
    }
  ],
  "receipts": [
    {
      "transactionHash": "0x4c674123db644c58d7a0c5dc01febfdcb593d5b8ca526d161db8ac002e5eebab",
      "transactionIndex": "0x1e",
      "blockHash": "0xa73a5c5046416dbb5cf759e0ef6790c07538afa4ae566fd2fbd2be4b23d31db4",
      "blockNumber": "0x76fcb1",
      "from": "0xb0bE073cB0B350B26e432808F78d19E8447DD6DD",
      "to": "0x4552f8b70a72A8ea1084bf7B7Ba50F10F2F9dAa7",
      "cumulativeGasUsed": "0xa32502",
      "gasUsed": "0x1602d",
      "contractAddress": null,
      "logs": [
        {
          "address": "0x4552f8b70a72A8ea1084bf7B7Ba50F10F2F9dAa7",
          "topics": [
            "0xeeb5941fb79bbfe40edd76c2e086e8ccdb0b463fc8ac07416266100b4dfddccf",
            "0x00000000000000000000000088c67b0510f576a539ecc9dbf571f6e0b0b89bf3",
            "0x000000000000000000000000b0be073cb0b350b26e432808f78d19e8447dd6dd"
          ],
          "data": "0x0000000000000000000000000000000000000000000000000000000000000001000000000000000000000000000000000000000000000000000000006350322c000000000000000000000000000000000000000000000000000000006377bf2c0000000000000000000000000000000000000000000000000000000000000000",
          "blockHash": "0xa73a5c5046416dbb5cf759e0ef6790c07538afa4ae566fd2fbd2be4b23d31db4",
          "blockNumber": "0x76fcb1",
          "transactionHash": "0x4c674123db644c58d7a0c5dc01febfdcb593d5b8ca526d161db8ac002e5eebab",
          "transactionIndex": "0x1e",
          "logIndex": "0x2d",
          "removed": false
        },
        {
          "address": "0x4552f8b70a72A8ea1084bf7B7Ba50F10F2F9dAa7",
          "topics": [
            "0x9a9e0edce33a498fe7d57bfc9e7b46f9a2cd45507d8853c0c18c4c7bd860798c",
            "0x00000000000000000000000088c67b0510f576a539ecc9dbf571f6e0b0b89bf3",
            "0x0000000000000000000000000000000000000000000000000000000000000001"
          ],
          "data": "0x0000000000000000000000000000000000000000000000000002d79883d20000000000000000000000000000000000000000000000000000000000006350322c0000000000000000000000000000000000000000000000000000000063766dac000000000000000000000000000000000000000000000000000000006377bf2c0000000000000000000000000000000000000000000000000000000000000000000000000000000000000000000000000000000000000000000000000000037800000000000000000000000000000000000000000000000000000000000003780000000000000000000000000000000000000000000000000000000000000064",
          "blockHash": "0xa73a5c5046416dbb5cf759e0ef6790c07538afa4ae566fd2fbd2be4b23d31db4",
          "blockNumber": "0x76fcb1",
          "transactionHash": "0x4c674123db644c58d7a0c5dc01febfdcb593d5b8ca526d161db8ac002e5eebab",
          "transactionIndex": "0x1e",
          "logIndex": "0x2e",
          "removed": false
        }
      ],
      "status": "0x1",
      "logsBloom": "0x0000000000000000000000000000000000000000000000000000000000000000000000000000000000000000000020000000000000000000000000008004000000000000200000000000000000000000000000000004000000000000000000040000000000000000000000000200000000000002000000000000400000208000000000000000000000000000000000000000000000001000000000000000000000000000000000000000000000010000000000000a000000000000000000000000000000000000000000000000000000000008000000000000000000000040000000000000000000000000000000000000010000000000000000000000000000",
      "type": "0x2",
      "effectiveGasPrice": "0x347a6df27"
    }
  ],
  "libraries": [],
  "pending": [],
  "path": "/Users/isaacpatka/Music/dev/sound-protocol/broadcast/NewEdition.s.sol/5/run-latest.json",
  "returns": {},
  "timestamp": 1666200148,
  "commit": "f29b535"
}